{"abi":[{"type":"constructor","inputs":[{"name":"systemAdmin","type":"address","internalType":"address"},{"name":"accountHolder","type":"address","internalType":"address"}],"stateMutability":"nonpayable"},{"type":"function","name":"ACCOUNT_HOLDER_ROLE","inputs":[],"outputs":[{"name":"","type":"bytes32","internalType":"bytes32"}],"stateMutability":"view"},{"type":"function","name":"DEFAULT_ADMIN_ROLE","inputs":[],"outputs":[{"name":"","type":"bytes32","internalType":"bytes32"}],"stateMutability":"view"},{"type":"function","name":"getRoleAdmin","inputs":[{"name":"role","type":"bytes32","internalType":"bytes32"}],"outputs":[{"name":"","type":"bytes32","internalType":"bytes32"}],"stateMutability":"view"},{"type":"function","name":"grantRole","inputs":[{"name":"role","type":"bytes32","internalType":"bytes32"},{"name":"account","type":"address","internalType":"address"}],"outputs":[],"stateMutability":"nonpayable"},{"type":"function","name":"hasRole","inputs":[{"name":"role","type":"bytes32","internalType":"bytes32"},{"name":"account","type":"address","internalType":"address"}],"outputs":[{"name":"","type":"bool","internalType":"bool"}],"stateMutability":"view"},{"type":"function","name":"owner","inputs":[],"outputs":[{"name":"","type":"address","internalType":"address"}],"stateMutability":"view"},{"type":"function","name":"renounceOwnership","inputs":[],"outputs":[],"stateMutability":"nonpayable"},{"type":"function","name":"renounceRole","inputs":[{"name":"role","type":"bytes32","internalType":"bytes32"},{"name":"callerConfirmation","type":"address","internalType":"address"}],"outputs":[],"stateMutability":"nonpayable"},{"type":"function","name":"revokeRole","inputs":[{"name":"role","type":"bytes32","internalType":"bytes32"},{"name":"account","type":"address","internalType":"address"}],"outputs":[],"stateMutability":"nonpayable"},{"type":"function","name":"supportsInterface","inputs":[{"name":"interfaceId","type":"bytes4","internalType":"bytes4"}],"outputs":[{"name":"","type":"bool","internalType":"bool"}],"stateMutability":"view"},{"type":"function","name":"transferOwnership","inputs":[{"name":"newOwner","type":"address","internalType":"address"}],"outputs":[],"stateMutability":"nonpayable"},{"type":"function","name":"verifyResolution","inputs":[{"name":"proposalId","type":"uint256","internalType":"uint256"},{"name":"yesOrNo","type":"bool","internalType":"bool"},{"name":"proof","type":"bytes","internalType":"bytes"}],"outputs":[{"name":"passed","type":"bool","internalType":"bool"}],"stateMutability":"view"},{"type":"event","name":"OwnershipTransferred","inputs":[{"name":"previousOwner","type":"address","indexed":true,"internalType":"address"},{"name":"newOwner","type":"address","indexed":true,"internalType":"address"}],"anonymous":false},{"type":"event","name":"RoleAdminChanged","inputs":[{"name":"role","type":"bytes32","indexed":true,"internalType":"bytes32"},{"name":"previousAdminRole","type":"bytes32","indexed":true,"internalType":"bytes32"},{"name":"newAdminRole","type":"bytes32","indexed":true,"internalType":"bytes32"}],"anonymous":false},{"type":"event","name":"RoleGranted","inputs":[{"name":"role","type":"bytes32","indexed":true,"internalType":"bytes32"},{"name":"account","type":"address","indexed":true,"internalType":"address"},{"name":"sender","type":"address","indexed":true,"internalType":"address"}],"anonymous":false},{"type":"event","name":"RoleRevoked","inputs":[{"name":"role","type":"bytes32","indexed":true,"internalType":"bytes32"},{"name":"account","type":"address","indexed":true,"internalType":"address"},{"name":"sender","type":"address","indexed":true,"internalType":"address"}],"anonymous":false},{"type":"error","name":"AccessControlBadConfirmation","inputs":[]},{"type":"error","name":"AccessControlUnauthorizedAccount","inputs":[{"name":"account","type":"address","internalType":"address"},{"name":"neededRole","type":"bytes32","internalType":"bytes32"}]},{"type":"error","name":"OwnableInvalidOwner","inputs":[{"name":"owner","type":"address","internalType":"address"}]},{"type":"error","name":"OwnableUnauthorizedAccount","inputs":[{"name":"account","type":"address","internalType":"address"}]}],"bytecode":{"object":"0x6080346100d357601f610dbd38819003918201601f19168301916001600160401b038311848410176100d75780849260409485528339810103126100d357610052602061004b836100eb565b92016100eb565b6001600160a01b039091169081156100c0575f80546001600160a01b03198116841782556100b093916001600160a01b03909116907f8be0079c531659141344cd1fd0a4f28419497f9722a3daafe3b4186f6b6457e09080a36100ff565b50604051610bf290816101ab8239f35b631e4fbdf760e01b5f525f60045260245ffd5b5f80fd5b634e487b7160e01b5f52604160045260245ffd5b51906001600160a01b03821682036100d357565b6001600160a01b0381165f9081525f80516020610d9d833981519152602052604090205460ff166101a5576001600160a01b03165f8181525f80516020610d9d83398151915260205260408120805460ff191660011790553391907f965e66db1ee773f10ddbae43dea4c0ce80cd1d36639de3baeb089f8b66904e00907f2f8788117e7eff1d82e926ec794901d17c78024a50270940304540a733656f0d9080a4600190565b505f9056fe6080806040526004361015610012575f80fd5b5f3560e01c90816301ffc9a71461074f57508063248a9ca31461071c5780632f2ff15d146106de57806336568abe1461069a578063715018a6146106435780638da5cb5b1461061c57806391d14854146105d3578063a217fddf146105b9578063d547741f14610574578063f2fde38b146104eb578063fb6cc44b146100de5763fce86f4e146100a0575f80fd5b346100da575f3660031901126100da5760206040517f965e66db1ee773f10ddbae43dea4c0ce80cd1d36639de3baeb089f8b66904e008152f35b5f80fd5b346100da5760603660031901126100da576024358015158091036100da5760443567ffffffffffffffff81116100da57366023820112156100da5780600401356101278161080a565b9061013560405192836107e8565b808252602082019236602483830101116100da57815f92602460209301863783010152805181019060208201926020828403126100da57519067ffffffffffffffff82116100da570190604090829003126100da5760405191610197836107b8565b602082015167ffffffffffffffff81116100da578160206101ba92850101610826565b835260408201519167ffffffffffffffff83116100da576101de9201602001610826565b6020820191818352815180925f9372184f03e93ff9f4daa797ed6e38ed64bf6a1f0160401b8310156104c8575b806d04ee2d6d415b85acef8100000000600a9210156104ad575b662386f26fc10000811015610499575b6305f5e100811015610488575b612710811015610479575b606481101561046b575b1015610461575b6001840191600a60216102896102738661080a565b9561028160405197886107e8565b80875261080a565b602086019790601f19013689378501015b5f1901916f181899199a1a9b1b9c1cb0b131b232b360811b8282061a8353049081156102c857600a9061029a565b505061032d61034394603a6020604051948593828501977f19457468657265756d205369676e6564204d6573736167653a0a00000000000089525180918587015e8401908382015f8152815193849201905e01015f815203601f1981018352826107e8565b5190205f549151916001600160a01b03166109dc565b1561042457516040818051810103126100da5760405190610363826107b8565b60208101519081151582036100da5760409183520151806020830152600435036103df575115150361039a57602060405160018152f35b60405162461bcd60e51b815260206004820152601860248201527f4e6f742074686520636c61696d6564206f7574636f6d652e00000000000000006044820152606490fd5b60405162461bcd60e51b815260206004820152601d60248201527f4e6f74207468652070726f706f73616c20696e207175657374696f6e2e0000006044820152606490fd5b60405162461bcd60e51b8152602060048201526015602482015274283937b7b3103237b2b9b713ba103b32b934b33c9760591b6044820152606490fd5b926001019261025e565b606460029104950194610257565b6127106004910495019461024d565b6305f5e10060089104950194610242565b662386f26fc1000060109104950194610235565b6d04ee2d6d415b85acef810000000060209104950194610225565b506040935072184f03e93ff9f4daa797ed6e38ed64bf6a1f0160401b820461020b565b346100da5760203660031901126100da576004356001600160a01b038116908190036100da576105196109b6565b8015610561575f80546001600160a01b03198116831782556001600160a01b0316907f8be0079c531659141344cd1fd0a4f28419497f9722a3daafe3b4186f6b6457e09080a3005b631e4fbdf760e01b5f525f60045260245ffd5b346100da5760403660031901126100da576105b76004356105936107a2565b906105b26105ad825f526001602052600160405f20015490565b61086c565b610932565b005b346100da575f3660031901126100da5760206040515f8152f35b346100da5760403660031901126100da576105ec6107a2565b6004355f52600160205260405f209060018060a01b03165f52602052602060ff60405f2054166040519015158152f35b346100da575f3660031901126100da575f546040516001600160a01b039091168152602090f35b346100da575f3660031901126100da5761065b6109b6565b5f80546001600160a01b0319811682556001600160a01b03167f8be0079c531659141344cd1fd0a4f28419497f9722a3daafe3b4186f6b6457e08280a3005b346100da5760403660031901126100da576106b36107a2565b336001600160a01b038216036106cf576105b790600435610932565b63334bd91960e11b5f5260045ffd5b346100da5760403660031901126100da576105b76004356106fd6107a2565b906107176105ad825f526001602052600160405f20015490565b6108a6565b346100da5760203660031901126100da5760206107476004355f526001602052600160405f20015490565b604051908152f35b346100da5760203660031901126100da576004359063ffffffff60e01b82168092036100da57602091637965db0b60e01b8114908115610791575b5015158152f35b6301ffc9a760e01b1490508361078a565b602435906001600160a01b03821682036100da57565b6040810190811067ffffffffffffffff8211176107d457604052565b634e487b7160e01b5f52604160045260245ffd5b90601f8019910116810190811067ffffffffffffffff8211176107d457604052565b67ffffffffffffffff81116107d457601f01601f191660200190565b81601f820112156100da5780519061083d8261080a565b9261084b60405194856107e8565b828452602083830101116100da57815f9260208093018386015e8301015290565b5f81815260016020908152604080832033845290915290205460ff16156108905750565b63e2517d3f60e01b5f523360045260245260445ffd5b5f8181526001602090815260408083206001600160a01b038616845290915290205460ff1661092c575f8181526001602081815260408084206001600160a01b0396909616808552959091528220805460ff19169091179055339291907f2f8788117e7eff1d82e926ec794901d17c78024a50270940304540a733656f0d9080a4600190565b50505f90565b5f8181526001602090815260408083206001600160a01b038616845290915290205460ff161561092c575f8181526001602090815260408083206001600160a01b0395909516808452949091528120805460ff19169055339291907ff6391f5c32d9c69d2a47ea670b442974b53935d1edc7fd64eb21e047a839171b9080a4600190565b5f546001600160a01b031633036109c957565b63118cdaa760e01b5f523360045260245ffd5b9190823b610a2b57906109ee91610af5565b506004811015610a1757159182610a0457505090565b6001600160a01b03918216911614919050565b634e487b7160e01b5f52602160045260245ffd5b915f926020610a866084869560405193849181830196630b135d3f60e11b88526024840152604060448401528051918291826064860152018484015e87838284010152601f801991011681010301601f1981018352826107e8565b51915afa3d15610aee573d610a9a8161080a565b90610aa860405192836107e8565b81523d5f602083013e5b81610ae0575b81610ac1575090565b90506020818051810103126100da5760200151630b135d3f60e11b1490565b905060208151101590610ab8565b6060610ab2565b8151919060418303610b2557610b1e9250602082015190606060408401519301515f1a90610b2f565b9192909190565b50505f9160029190565b91907f7fffffffffffffffffffffffffffffff5d576e7357a4501ddfe92f46681b20a08411610bb1579160209360809260ff5f9560405194855216868401526040830152606082015282805260015afa15610ba6575f516001600160a01b03811615610b9c57905f905f90565b505f906001905f90565b6040513d5f823e3d90fd5b5050505f916003919056fea2646970667358221220b36307e7c74e77948036dc7c788c9a536e3a4cefd4874538705a1a4276c4d46964736f6c634300081a0033fcc145ee182f633ab949f1117d4162318c0d2b9385951420af79844f7282ecfd","linkReferences":{}},"methodIdentifiers":{"ACCOUNT_HOLDER_ROLE()":"fce86f4e","DEFAULT_ADMIN_ROLE()":"a217fddf","getRoleAdmin(bytes32)":"248a9ca3","grantRole(bytes32,address)":"2f2ff15d","hasRole(bytes32,address)":"91d14854","owner()":"8da5cb5b","renounceOwnership()":"715018a6","renounceRole(bytes32,address)":"36568abe","revokeRole(bytes32,address)":"d547741f","supportsInterface(bytes4)":"01ffc9a7","transferOwnership(address)":"f2fde38b","verifyResolution(uint256,bool,bytes)":"fb6cc44b"},"id":249}