{"abi":[{"type":"constructor","inputs":[{"name":"_ftsoRegistry","type":"address","internalType":"address"},{"name":"_fdc","type":"address","internalType":"address"},{"name":"_owner","type":"address","internalType":"address"}],"stateMutability":"nonpayable"},{"type":"function","name":"CONFIGURER_ROLE","inputs":[],"outputs":[{"name":"","type":"bytes32","internalType":"bytes32"}],"stateMutability":"view"},{"type":"function","name":"DEFAULT_ADMIN_ROLE","inputs":[],"outputs":[{"name":"","type":"bytes32","internalType":"bytes32"}],"stateMutability":"view"},{"type":"function","name":"fdc","inputs":[],"outputs":[{"name":"","type":"address","internalType":"contract IFlareDataConnector"}],"stateMutability":"view"},{"type":"function","name":"fdcRequestIds","inputs":[{"name":"","type":"uint256","internalType":"uint256"}],"outputs":[{"name":"","type":"bytes32","internalType":"bytes32"}],"stateMutability":"view"},{"type":"function","name":"fdcRequestTimestamps","inputs":[{"name":"","type":"uint256","internalType":"uint256"}],"outputs":[{"name":"","type":"uint256","internalType":"uint256"}],"stateMutability":"view"},{"type":"function","name":"ftsoRegistry","inputs":[],"outputs":[{"name":"","type":"address","internalType":"contract IFtsoRegistry"}],"stateMutability":"view"},{"type":"function","name":"getFDCAttestationStatus","inputs":[{"name":"proposalId","type":"uint256","internalType":"uint256"}],"outputs":[{"name":"requestId","type":"bytes32","internalType":"bytes32"},{"name":"available","type":"bool","internalType":"bool"},{"name":"data","type":"bytes","internalType":"bytes"}],"stateMutability":"view"},{"type":"function","name":"getFTSOPrice","inputs":[{"name":"tokenAddress","type":"address","internalType":"address"}],"outputs":[{"name":"price","type":"uint256","internalType":"uint256"},{"name":"timestamp","type":"uint256","internalType":"uint256"}],"stateMutability":"view"},{"type":"function","name":"getRoleAdmin","inputs":[{"name":"role","type":"bytes32","internalType":"bytes32"}],"outputs":[{"name":"","type":"bytes32","internalType":"bytes32"}],"stateMutability":"view"},{"type":"function","name":"grantConfigurerRole","inputs":[{"name":"account","type":"address","internalType":"address"}],"outputs":[],"stateMutability":"nonpayable"},{"type":"function","name":"grantRole","inputs":[{"name":"role","type":"bytes32","internalType":"bytes32"},{"name":"account","type":"address","internalType":"address"}],"outputs":[],"stateMutability":"nonpayable"},{"type":"function","name":"hasRole","inputs":[{"name":"role","type":"bytes32","internalType":"bytes32"},{"name":"account","type":"address","internalType":"address"}],"outputs":[{"name":"","type":"bool","internalType":"bool"}],"stateMutability":"view"},{"type":"function","name":"owner","inputs":[],"outputs":[{"name":"","type":"address","internalType":"address"}],"stateMutability":"view"},{"type":"function","name":"renounceOwnership","inputs":[],"outputs":[],"stateMutability":"nonpayable"},{"type":"function","name":"renounceRole","inputs":[{"name":"role","type":"bytes32","internalType":"bytes32"},{"name":"callerConfirmation","type":"address","internalType":"address"}],"outputs":[],"stateMutability":"nonpayable"},{"type":"function","name":"resolutionConfigs","inputs":[{"name":"","type":"uint256","internalType":"uint256"}],"outputs":[{"name":"resolutionType","type":"uint8","internalType":"enum ResolutionType"},{"name":"tokenAddress","type":"address","internalType":"address"},{"name":"ftsoAddress","type":"address","internalType":"address"},{"name":"targetPrice","type":"uint256","internalType":"uint256"},{"name":"targetMarketCap","type":"uint256","internalType":"uint256"},{"name":"dataSource","type":"string","internalType":"string"},{"name":"query","type":"bytes","internalType":"bytes"},{"name":"expectedData","type":"bytes","internalType":"bytes"},{"name":"timestamp","type":"uint256","internalType":"uint256"}],"stateMutability":"view"},{"type":"function","name":"revokeConfigurerRole","inputs":[{"name":"account","type":"address","internalType":"address"}],"outputs":[],"stateMutability":"nonpayable"},{"type":"function","name":"revokeRole","inputs":[{"name":"role","type":"bytes32","internalType":"bytes32"},{"name":"account","type":"address","internalType":"address"}],"outputs":[],"stateMutability":"nonpayable"},{"type":"function","name":"setResolutionConfig","inputs":[{"name":"proposalId","type":"uint256","internalType":"uint256"},{"name":"config","type":"tuple","internalType":"struct ResolutionConfig","components":[{"name":"resolutionType","type":"uint8","internalType":"enum ResolutionType"},{"name":"tokenAddress","type":"address","internalType":"address"},{"name":"ftsoAddress","type":"address","internalType":"address"},{"name":"targetPrice","type":"uint256","internalType":"uint256"},{"name":"targetMarketCap","type":"uint256","internalType":"uint256"},{"name":"dataSource","type":"string","internalType":"string"},{"name":"query","type":"bytes","internalType":"bytes"},{"name":"expectedData","type":"bytes","internalType":"bytes"},{"name":"timestamp","type":"uint256","internalType":"uint256"}]}],"outputs":[],"stateMutability":"nonpayable"},{"type":"function","name":"submitFDCRequest","inputs":[{"name":"proposalId","type":"uint256","internalType":"uint256"}],"outputs":[],"stateMutability":"nonpayable"},{"type":"function","name":"supportsInterface","inputs":[{"name":"interfaceId","type":"bytes4","internalType":"bytes4"}],"outputs":[{"name":"","type":"bool","internalType":"bool"}],"stateMutability":"view"},{"type":"function","name":"transferOwnership","inputs":[{"name":"newOwner","type":"address","internalType":"address"}],"outputs":[],"stateMutability":"nonpayable"},{"type":"function","name":"verifyResolution","inputs":[{"name":"proposalId","type":"uint256","internalType":"uint256"},{"name":"yesOrNo","type":"bool","internalType":"bool"},{"name":"proof","type":"bytes","internalType":"bytes"}],"outputs":[{"name":"","type":"bool","internalType":"bool"}],"stateMutability":"view"},{"type":"event","name":"FDCRequestSubmitted","inputs":[{"name":"proposalId","type":"uint256","indexed":true,"internalType":"uint256"},{"name":"requestId","type":"bytes32","indexed":true,"internalType":"bytes32"},{"name":"dataSource","type":"string","indexed":false,"internalType":"string"}],"anonymous":false},{"type":"event","name":"OwnershipTransferred","inputs":[{"name":"previousOwner","type":"address","indexed":true,"internalType":"address"},{"name":"newOwner","type":"address","indexed":true,"internalType":"address"}],"anonymous":false},{"type":"event","name":"ResolutionConfigSet","inputs":[{"name":"proposalId","type":"uint256","indexed":true,"internalType":"uint256"},{"name":"resolutionType","type":"uint8","indexed":false,"internalType":"enum ResolutionType"},{"name":"tokenAddress","type":"address","indexed":false,"internalType":"address"}],"anonymous":false},{"type":"event","name":"ResolutionVerified","inputs":[{"name":"proposalId","type":"uint256","indexed":true,"internalType":"uint256"},{"name":"outcome","type":"bool","indexed":false,"internalType":"bool"},{"name":"resolutionType","type":"uint8","indexed":false,"internalType":"enum ResolutionType"}],"anonymous":false},{"type":"event","name":"RoleAdminChanged","inputs":[{"name":"role","type":"bytes32","indexed":true,"internalType":"bytes32"},{"name":"previousAdminRole","type":"bytes32","indexed":true,"internalType":"bytes32"},{"name":"newAdminRole","type":"bytes32","indexed":true,"internalType":"bytes32"}],"anonymous":false},{"type":"event","name":"RoleGranted","inputs":[{"name":"role","type":"bytes32","indexed":true,"internalType":"bytes32"},{"name":"account","type":"address","indexed":true,"internalType":"address"},{"name":"sender","type":"address","indexed":true,"internalType":"address"}],"anonymous":false},{"type":"event","name":"RoleRevoked","inputs":[{"name":"role","type":"bytes32","indexed":true,"internalType":"bytes32"},{"name":"account","type":"address","indexed":true,"internalType":"address"},{"name":"sender","type":"address","indexed":true,"internalType":"address"}],"anonymous":false},{"type":"error","name":"AccessControlBadConfirmation","inputs":[]},{"type":"error","name":"AccessControlUnauthorizedAccount","inputs":[{"name":"account","type":"address","internalType":"address"},{"name":"neededRole","type":"bytes32","internalType":"bytes32"}]},{"type":"error","name":"AttestationNotAvailable","inputs":[{"name":"requestId","type":"bytes32","internalType":"bytes32"}]},{"type":"error","name":"ConfigNotSet","inputs":[{"name":"proposalId","type":"uint256","internalType":"uint256"}]},{"type":"error","name":"FDCRequestNotFound","inputs":[{"name":"proposalId","type":"uint256","internalType":"uint256"}]},{"type":"error","name":"FTSONotAvailable","inputs":[{"name":"token","type":"address","internalType":"address"}]},{"type":"error","name":"InvalidResolutionType","inputs":[]},{"type":"error","name":"OutcomeMismatch","inputs":[{"name":"expected","type":"bool","internalType":"bool"},{"name":"actual","type":"bool","internalType":"bool"}]},{"type":"error","name":"OwnableInvalidOwner","inputs":[{"name":"owner","type":"address","internalType":"address"}]},{"type":"error","name":"OwnableUnauthorizedAccount","inputs":[{"name":"account","type":"address","internalType":"address"}]}],"bytecode":{"object":"0x60c03461012a57601f611e2738819003918201601f19168301916001600160401b0383118484101761012e5780849260609460405283398101031261012a5761004781610142565b90610060604061005960208401610142565b9201610142565b6001600160a01b038116929091908315610117575f80546001600160a01b03198116861782556100d295916001600160a01b03909116907f8be0079c531659141344cd1fd0a4f28419497f9722a3daafe3b4186f6b6457e09080a36001600160a01b039081166080521660a052610156565b50604051611c2790816101e08239608051818181610e8901528181610ff40152611b04015260a0518181816102ad01528181610f11015281816114f701526119080152f35b631e4fbdf760e01b5f525f60045260245ffd5b5f80fd5b634e487b7160e01b5f52604160045260245ffd5b51906001600160a01b038216820361012a57565b6001600160a01b0381165f9081525f80516020611e07833981519152602052604090205460ff166101da576001600160a01b03165f8181525f80516020611e0783398151915260205260408120805460ff191660011790553391907f2f8788117e7eff1d82e926ec794901d17c78024a50270940304540a733656f0d8180a4600190565b505f9056fe6080806040526004361015610012575f80fd5b5f3560e01c90816301ffc9a714611138575080631e0d6ec314610fb1578063248a9ca314610f7e5780632f2ff15d14610f405780633275f21c14610efc57806336568abe14610eb857806338b5f86914610e7457806365bdc0c914610e4b578063715018a614610df45780637782da2f14610c6f5780638a828e4e14610c465780638da5cb5b14610c1f57806391d1485414610bd6578063941f58cf146106425780639ba2e35d14610618578063a217fddf146105fe578063a26ce6f8146105d4578063abbb9f4c146105ad578063b0245250146104d3578063ca0f228b1461048d578063d547741f14610448578063f2fde38b146103c35763fb6cc44b14610119575f80fd5b346103bf5760603660031901126103bf576004356024358015158091036103bf576044356001600160401b0381116103bf57610159903690600401611362565b50815f52600260205260405f206040519061017382611203565b805461018260ff8216846113b5565b60081c6001600160a01b039081166020840152600182015416604083015260028101546060830152600381015460808301526101c060048201611240565b60a08301526101d160058201611240565b60c083015260076101e460068301611240565b9160e08401928352015461010083019081528251600581101561037a576004149081156103b5575b506103a2578151600581101561037a5715801561038e575b1561025f57506102359192506119d2565b15159080820361024a57602060405160018152f35b635589006560e11b5f5260045260245260445ffd5b908051600581101561037a57600214908115610365575b501561035657825f52600360205260405f205492831561034457506040516328c44a9960e21b815260048101849052905f826024817f00000000000000000000000000000000000000000000000000000000000000006001600160a01b03165afa918215610339575f905f93610312575b50156102ff576102fa9293505190611b90565b610235565b83630143bcd560e41b5f5260045260245ffd5b90506103319192503d805f833e610329818361121f565b810190611456565b91905f6102e7565b6040513d5f823e3d90fd5b632605ad7960e21b5f5260045260245ffd5b63e1d645bf60e01b5f5260045ffd5b905051600581101561037a576003145f610276565b634e487b7160e01b5f52602160045260245ffd5b508151600581101561037a57600114610224565b83630f933b6b60e31b5f5260045260245ffd5b905051155f61020c565b5f80fd5b346103bf5760203660031901126103bf576103dc61118b565b6103e461187d565b6001600160a01b03168015610435575f80546001600160a01b03198116831782556001600160a01b0316907f8be0079c531659141344cd1fd0a4f28419497f9722a3daafe3b4186f6b6457e09080a3005b631e4fbdf760e01b5f525f60045260245ffd5b346103bf5760403660031901126103bf5761048b6004356104676111a1565b90610486610481825f526001602052600160405f20015490565b61160a565b6117f9565b005b346103bf5760203660031901126103bf576104cf6104ac6004356114c9565b6040939193519384938452151560208401526060604084015260608301906112ed565b0390f35b346103bf5760203660031901126103bf576004355f52600260205260405f20805460018060a01b03600183015416916105a2600282015491610594600382015461058661052260048501611240565b61052e60058601611240565b92600761053d60068801611240565b960154976040519a8a6105548d60ff819e166112e0565b60081c6001600160a01b031660208c015260408b015260608a0152608089015261012060a089018190528801906112ed565b9086820360c08801526112ed565b9084820360e08601526112ed565b906101008301520390f35b346103bf575f3660031901126103bf5760206040515f80516020611bb28339815191528152f35b346103bf5760203660031901126103bf576004355f526004602052602060405f2054604051908152f35b346103bf575f3660031901126103bf5760206040515f8152f35b346103bf5760203660031901126103bf576004355f526003602052602060405f2054604051908152f35b346103bf5760403660031901126103bf576004356024356001600160401b0381116103bf57806004019061012060031982360301126103bf576106836115c1565b81359160058310156103bf5760048314610b985760248201916106a5836113c1565b9160448201906106b4826113c1565b6064840135946084850135888a60a4880193886106d186896113d5565b8c60c48401996106e18b8d6113d5565b94909560e4019c8d6106f2916113d5565b9690916040519a6107028c611203565b61070c908c6113b5565b6001600160a01b0398891660208c019081529390981660408b0190815260608b0194855260808b018c815293989395909361074891369161132c565b9560a08b01968752369061075b9261132c565b9560c08a01968752369061076e9261132c565b9560e089019687526101008901974289525f52600260205260405f20985190600582101561037a5789549051610100600160a81b0360089190911b1660ff929092166001600160a81b031990911617178855516001880180546001600160a01b039092166001600160a01b031990921691909117905551600287015551600386015551805160048601916001600160401b038211610abe5761081a8261081485546111cb565b85611407565b602090601f8311600114610b355761084992915f9183610a4c575b50508160011b915f199060031b1c19161790565b90555b51805160058501916001600160401b038211610abe576108708261081485546111cb565b602090601f8311600114610ad25761089e92915f9183610a4c5750508160011b915f199060031b1c19161790565b90555b51805160068401916001600160401b038211610abe576108c58261081485546111cb565b602090601f8311600114610a575791806108f89260079695945f92610a4c5750508160011b915f199060031b1c19161790565b90555b519101555f9660028a148015610a3f575b610966575b505050505050506103bf577f43e36f09ac952b92fb82145eb9ff058db90b281e095bdb8487e88cb869a5656b916109496040926113c1565b610955835180936112e0565b6001600160a01b03166020820152a2005b604051958861097488611203565b6103bf57610992908b88526109888b6111b7565b60208901526111b7565b604087015260608601526080850152356001600160401b0381116103bf578401366023820112156103bf576109d190369060246004820135910161132c565b60a0840152356001600160401b0381116103bf576109f59060043691860101611362565b60c0830152356001600160401b0381116103bf57610a3392610a206101049260043691840101611362565b60e08401520135610100820152856118a3565b84808080808080610911565b505f975060038a1461090c565b015190505f80610835565b90601f19831691845f52815f20925f5b818110610aa6575091600193918560079897969410610a8e575b505050811b0190556108fb565b01515f1960f88460031b161c191690555f8080610a81565b92936020600181928786015181550195019301610a67565b634e487b7160e01b5f52604160045260245ffd5b90601f19831691845f52815f20925f5b818110610b1d5750908460019594939210610b05575b505050811b0190556108a1565b01515f1960f88460031b161c191690555f8080610af8565b92936020600181928786015181550195019301610ae2565b90601f19831691845f52815f20925f5b818110610b805750908460019594939210610b68575b505050811b01905561084c565b01515f1960f88460031b161c191690555f8080610b5b565b92936020600181928786015181550195019301610b45565b60405162461bcd60e51b815260206004820152601660248201527543616e6e6f7420736574204d414e55414c207479706560501b6044820152606490fd5b346103bf5760403660031901126103bf57610bef6111a1565b6004355f52600160205260405f209060018060a01b03165f52602052602060ff60405f2054166040519015158152f35b346103bf575f3660031901126103bf575f546040516001600160a01b039091168152602090f35b346103bf5760203660031901126103bf5761048b610c6261118b565b610c6a611572565b611768565b346103bf5760203660031901126103bf57600435610c8b6115c1565b805f52600260205260405f20600760405191610ca683611203565b8054610cb560ff8216856113b5565b60081c6001600160a01b03908116602085015260018201541660408401526002810154606084015260038101546080840152610cf360048201611240565b60a0840152610d0460058201611240565b60c0840152610d1560068201611240565b60e084015201546101008201528051600581101561037a576002148015610de0575b15610d9b57815f52600360205260405f2054610d565761048b916118a3565b60405162461bcd60e51b815260206004820152601960248201527f5265717565737420616c7265616479207375626d6974746564000000000000006044820152606490fd5b60405162461bcd60e51b815260206004820152601a60248201527f4e6f7420616e20464443207265736f6c7574696f6e20747970650000000000006044820152606490fd5b508051600581101561037a57600314610d37565b346103bf575f3660031901126103bf57610e0c61187d565b5f80546001600160a01b0319811682556001600160a01b03167f8be0079c531659141344cd1fd0a4f28419497f9722a3daafe3b4186f6b6457e08280a3005b346103bf5760203660031901126103bf5761048b610e6761118b565b610e6f611572565b611644565b346103bf575f3660031901126103bf576040517f00000000000000000000000000000000000000000000000000000000000000006001600160a01b03168152602090f35b346103bf5760403660031901126103bf57610ed16111a1565b336001600160a01b03821603610eed5761048b906004356117f9565b63334bd91960e11b5f5260045ffd5b346103bf575f3660031901126103bf576040517f00000000000000000000000000000000000000000000000000000000000000006001600160a01b03168152602090f35b346103bf5760403660031901126103bf5761048b600435610f5f6111a1565b90610f79610481825f526001602052600160405f20015490565b6116dc565b346103bf5760203660031901126103bf576020610fa96004355f526001602052600160405f20015490565b604051908152f35b346103bf5760203660031901126103bf57610fca61118b565b6040516310b0234160e21b81526001600160a01b03918216600482015290602090829060249082907f0000000000000000000000000000000000000000000000000000000000000000165afa908115610339575f91611109575b506001600160a01b031680156110cf57604080516375c8e9bf60e11b815291829060049082905afa908115610339575f905f9261109d575b506509184e72a0008102908082046509184e72a00014901517156110895760409182519182526020820152f35b634e487b7160e01b5f52601160045260245ffd5b90506110c1915060403d6040116110c8575b6110b9818361121f565b81019061139f565b908261105c565b503d6110af565b60405162461bcd60e51b81526020600482015260126024820152714654534f206e6f7420617661696c61626c6560701b6044820152606490fd5b61112b915060203d602011611131575b611123818361121f565b810190611380565b81611024565b503d611119565b346103bf5760203660031901126103bf576004359063ffffffff60e01b82168092036103bf57602091637965db0b60e01b811490811561117a575b5015158152f35b6301ffc9a760e01b14905083611173565b600435906001600160a01b03821682036103bf57565b602435906001600160a01b03821682036103bf57565b35906001600160a01b03821682036103bf57565b90600182811c921680156111f9575b60208310146111e557565b634e487b7160e01b5f52602260045260245ffd5b91607f16916111da565b61012081019081106001600160401b03821117610abe57604052565b90601f801991011681019081106001600160401b03821117610abe57604052565b9060405191825f825492611253846111cb565b80845293600181169081156112be575060011461127a575b506112789250038361121f565b565b90505f9291925260205f20905f915b8183106112a2575050906020611278928201015f61126b565b6020919350806001915483858901015201910190918492611289565b90506020925061127894915060ff191682840152151560051b8201015f61126b565b90600582101561037a5752565b805180835260209291819084018484015e5f828201840152601f01601f1916010190565b6001600160401b038111610abe57601f01601f191660200190565b92919261133882611311565b91611346604051938461121f565b8294818452818301116103bf578281602093845f960137010152565b9080601f830112156103bf5781602061137d9335910161132c565b90565b908160209103126103bf57516001600160a01b03811681036103bf5790565b91908260409103126103bf576020825192015190565b600582101561037a5752565b356001600160a01b03811681036103bf5790565b903590601e19813603018212156103bf57018035906001600160401b0382116103bf576020019181360383136103bf57565b601f821161141457505050565b5f5260205f20906020601f840160051c8301931061144c575b601f0160051c01905b818110611441575050565b5f8155600101611436565b909150819061142d565b91906040838203126103bf57825180151581036103bf57926020810151906001600160401b0382116103bf570181601f820112156103bf5780519061149a82611311565b926114a8604051948561121f565b828452602083830101116103bf57815f9260208093018386015e8301015290565b5f52600360205260405f20548015611559576040516328c44a9960e21b815260048101829052915f836024817f00000000000000000000000000000000000000000000000000000000000000006001600160a01b03165afa918215610339575f935f93611537575b50929190565b90925061154f9193503d805f833e610329818361121f565b929092915f611531565b505f905f9060405161156c60208261121f565b5f815290565b335f9081527fa6eef7e35abe7026729641147f7915573c7e97b47efa546f5f6e3230263bcb49602052604090205460ff16156115aa57565b63e2517d3f60e01b5f52336004525f60245260445ffd5b335f9081525f80516020611bd2833981519152602052604090205460ff16156115e657565b63e2517d3f60e01b5f52336004525f80516020611bb283398151915260245260445ffd5b5f81815260016020908152604080832033845290915290205460ff161561162e5750565b63e2517d3f60e01b5f523360045260245260445ffd5b6001600160a01b0381165f9081525f80516020611bd2833981519152602052604090205460ff166116d7576001600160a01b03165f8181525f80516020611bd283398151915260205260408120805460ff191660011790553391905f80516020611bb2833981519152907f2f8788117e7eff1d82e926ec794901d17c78024a50270940304540a733656f0d9080a4600190565b505f90565b5f8181526001602090815260408083206001600160a01b038616845290915290205460ff16611762575f8181526001602081815260408084206001600160a01b0396909616808552959091528220805460ff19169091179055339291907f2f8788117e7eff1d82e926ec794901d17c78024a50270940304540a733656f0d9080a4600190565b50505f90565b6001600160a01b0381165f9081525f80516020611bd2833981519152602052604090205460ff16156116d7576001600160a01b03165f8181525f80516020611bd283398151915260205260408120805460ff191690553391905f80516020611bb2833981519152907ff6391f5c32d9c69d2a47ea670b442974b53935d1edc7fd64eb21e047a839171b9080a4600190565b5f8181526001602090815260408083206001600160a01b038616845290915290205460ff1615611762575f8181526001602090815260408083206001600160a01b0395909516808452949091528120805460ff19169055339291907ff6391f5c32d9c69d2a47ea670b442974b53935d1edc7fd64eb21e047a839171b9080a4600190565b5f546001600160a01b0316330361189057565b63118cdaa760e01b5f523360045260245ffd5b60a0820160c0815193015192620151804201804211611089576020916118e9916118fb604051978894859463053711d760e01b86526060600487015260648601906112ed565b848103600319016024860152906112ed565b604483019190915203815f7f00000000000000000000000000000000000000000000000000000000000000006001600160a01b03165af1928315610339575f9361199c575b506119977f708b9a1e67031be0ccf6d48bb9990f5d9ea10c0600f4f01defa7409b1a40196291835f5260036020528460405f2055835f5260046020524260405f2055516040519182916020835260208301906112ed565b0390a3565b9092506020813d6020116119ca575b816119b86020938361121f565b810103126103bf575191611997611940565b3d91506119ab565b6040810180516001600160a01b031615611ad35751600491906040906001600160a01b03165b81516375c8e9bf60e11b815293849182906001600160a01b03165afa8015610339575f925f91611aae575b5015611a74576509184e72a0008202918083046509184e72a000149015171561108957805190600582101561037a57606091600103611a6d57608081015115611a6d570151111590565b0151111590565b60405162461bcd60e51b8152602060048201526012602482015271496e76616c6964204654534f20707269636560701b6044820152606490fd5b9050611aca91925060403d6040116110c8576110b9818361121f565b9190915f611a23565b50602081810180516040516310b0234160e21b81526001600160a01b039182166004820152919290829060249082907f0000000000000000000000000000000000000000000000000000000000000000165afa908115610339575f91611b71575b506001600160a01b0316908115611b5157509060406004926119f8565b5163020d3a9160e51b5f9081526001600160a01b03909116600452602490fd5b611b8a915060203d60201161113157611123818361121f565b5f611b34565b90805180611ba057505051151590565b82516020938401209290910120149056fef45c97b23e2beeefda80e1ce5cb3e234aa7b6888ad5cbabb75bfd654dd8e102d15fa9a06af7b28cd82d99ceca023ffd2085f89d27d594a8a91969f0cfc8349dda2646970667358221220b6de592b6b1773d7a03641b569c29d4701feb97b3829ea71e757e6253afb273b64736f6c634300081a0033a6eef7e35abe7026729641147f7915573c7e97b47efa546f5f6e3230263bcb49","linkReferences":{}},"methodIdentifiers":{"CONFIGURER_ROLE()":"abbb9f4c","DEFAULT_ADMIN_ROLE()":"a217fddf","fdc()":"3275f21c","fdcRequestIds(uint256)":"9ba2e35d","fdcRequestTimestamps(uint256)":"a26ce6f8","ftsoRegistry()":"38b5f869","getFDCAttestationStatus(uint256)":"ca0f228b","getFTSOPrice(address)":"1e0d6ec3","getRoleAdmin(bytes32)":"248a9ca3","grantConfigurerRole(address)":"65bdc0c9","grantRole(bytes32,address)":"2f2ff15d","hasRole(bytes32,address)":"91d14854","owner()":"8da5cb5b","renounceOwnership()":"715018a6","renounceRole(bytes32,address)":"36568abe","resolutionConfigs(uint256)":"b0245250","revokeConfigurerRole(address)":"8a828e4e","revokeRole(bytes32,address)":"d547741f","setResolutionConfig(uint256,(uint8,address,address,uint256,uint256,string,bytes,bytes,uint256))":"941f58cf","submitFDCRequest(uint256)":"7782da2f","supportsInterface(bytes4)":"01ffc9a7","transferOwnership(address)":"f2fde38b","verifyResolution(uint256,bool,bytes)":"fb6cc44b"},"id":250}